:020000040800F2
:10000000D0070020010100080F170008671300083F
:100010000D170008F5070008A519000800000000EA
:10002000000000000000000000000000331700087E
:100030009D0800080000000031170008351700086F
:100040001B0100081B0100081B0100081B01000820
:100050001B0100081B0100081B0100081B01000810
:100060001B0100081B0100081B0100081B01000800
:100070001B0100081B0100081B0100081B010008F0
:100080001B0100081B0100081B0100081B010008E0
:100090001B0100081B0100081B0100081B010008D0
:1000A0001B0100081B0100081B0100081B010008C0
:1000B0001B0100081B0100081B0100081B010008B0
:1000C0001B0100081B0100081B0100081B010008A0
:1000D0001B0100081B0100081B0100081B01000890
:1000E0001B0100081B0100081B010008DFF80CD0F1
:1000F00000F06EFB00480047692E0008D007002082
:100100000648804706480047FEE7FEE7FEE7FEE7B1
:10011000FEE7FEE7FEE7FEE7FEE7FEE789170008D9
:10012000ED000008202A04DB203A21FA02F0002129
:10013000704721FA02F3D040C2F1200291400843F7
:100140001946704740EA01039B0703D009E008C93C
:10015000121F08C0042AFAD203E011F8013B00F88C
:10016000013B521EF9D27047D2B201E000F8012BD8
:10017000491EFBD270470022F6E710B513460A4627
:1001800004461946FFF7F0FF204610BD2DE9FE4F4B
:10019000804681EA0300C00F0C46009021F0004128
:1001A00023F00045B8EB0200A94105D240462146A4
:1001B00090461C460B46024623F00040104347D0B1
:1001C000270DC7F30A00C3F30A510290401A0190A9
:1001D00040286BDAC3F3130040F4801B009892466A
:1001E00020B10023D2EB030A63EB0B0B01985946B5
:1001F000C0F14002504600F0ECF906460D4650466C
:100200005946019A00F0F4F910EB0800614100240E
:1002100087EA115284EAE7731A4340D0009A62B326
:10022000019A012A4FEA075215DC001B61EB02011B
:100230004FF0004202EA0752CDE90042001C41F5AE
:10024000801132462B4600F0F4F903B0BDE8F08F80
:1002500040462146F9E7001B61EB0201001C41F515
:10026000801300185B412018A2F5001747EB03012B
:1002700040EAD570B6196D4111E06D084FEA3606B7
:1002800045EAC0754FEA0752001B61EB0201001CF2
:1002900041F5801149084FEA3000001951413246BA
:1002A0002B4603B0BDE8F04F00F0B4B9009801222E
:1002B00040000023D0EB020263EBE073009821467C
:1002C0004FEAE074B8EB000061EB0401E9E783F06A
:1002D00000435BE781F0004158E72DE9FE4F81EADA
:1002E000030404F0004421F0004100944FF0000B9F
:1002F00023F0004350EA01045ED052EA03045BD0CD
:10030000C3F30A54C1F30A552C44A4F2F334019404
:10031000A0FB0254C1F3130141F48011C3F3130392
:1003200043F4801301FB024400FB034E840A970A46
:1003300044EA815447EA8357A4FB076802958D0A73
:1003400005FB07854FEA932C04FB0C542705029DFF
:100350004FEA065847EA1637B5EB08056EEB070C6F
:10036000870E920E47EA811742EA8312A7FB020129
:10037000B6EB0B0164EB00042B0D43EA0C335E1863
:1003800044EB1C50DA465146E7FB0201C5F3130467
:100390004FEA0B3343EA14534FEA0432019C43EA19
:1003A0000603A4F10C040294009CCDE900B400F013
:1003B00040F903B0BDE8F08F00200146F9E72DE9D0
:1003C000F04D81EA030404F0004B21F0004514468F
:1003D0004FF0000A23F0004150EA050220D054EA11
:1003E00001021DD0C5F30A570246C5F31303C1F33A
:1003F0001300C1F30A5640F4801543F48013A7EBB1
:100400000608101BD64608F2FD3873EB050002D330
:1004100008F1010801E092185B41B8F1000F03DA1E
:1004200000200146BDE8F08D00204FF48011064603
:1004300084460EE0171B73EB050705D3121B63EB15
:10044000050306434CEA010C49084FEA30009218B4
:100450005B4150EA0107EDD152EA030012D082EA73
:10046000040083EA0501084305D0101BAB4106D206
:100470000122002306E000224FF0004302E06FF06B
:10048000010253101AEB06004CEB085110EB0A0066
:1004900041EB0B01BDE8F04D00F0BCB870B521F0A8
:1004A000004303430CD0C1F30A550024D5EB0405E7
:1004B00064EB0403D617AD1AB34102DB00200146FA
:1004C00070BD201841EB025170BD0EB5C10F80EA1E
:1004D000E0700844CA07002140F233438DE80E0063
:1004E0000A460B4600F0A5F803B000BD0EB540F279
:1004F000334102910021CDE900110A460B4600F07C
:1005000098F803B000BD70B5C1F30A5201F0004580
:100510000024C1F3130140F2FF3341F480119A42E9
:1005200001DA002070BD40F233439A42A2F2334216
:1005300003DC5242FFF7F6FD00E090402C43F1D07F
:10054000404270BD30B50B460146002020220124F8
:1005500009E021FA02F59D4205D303FA02F5491B91
:1005600004FA02F52844151EA2F10102F1DC30BDA7
:100570002DE9F05F0546002092469B4688460646D8
:10058000814640241BE02846414647462246FFF765
:10059000C9FD53465A46C01A914110D31146184618
:1005A000224600F016F82D1A67EB01084F46224646
:1005B0000120002100F00DF817EB00094E41201E2C
:1005C000A4F10104DFDC484631462A464346BDE833
:1005D000F09F202A04DB203A00FA02F10020704745
:1005E0009140C2F1200320FA03F319439040704771
:1005F000202A06DBCB17203A41FA02F043EAE073E7
:1006000006E041FA02F3D040C2F1200291400843D3
:100610001946704710B5141E73F1000408DA401C27
:1006200041F1000192185B411A4301D120F0010011
:1006300010BD2DE9F04D92469B4611B1B1FA81F201
:1006400002E0B0FA80F220329046FFF7C2FF044683
:100650000F4640EA0A0041EA0B0153465A46084356
:1006600013D0114653EA010019D0C8F14002504698
:10067000FFF758FD05460E46504659464246FFF7DD
:10068000A8FF084305D0012004E020463946BDE814
:10069000F08D0020054346EAE0762C4337430A9864
:1006A0006305E40AA0EB08000022FD0A44EA47546F
:1006B0000A3002D500200146E9E701051019694119
:1006C000DDE9084500196941BDE8F04DA2E72DE9D3
:1006D000F04D00231A461B1A8A4103DB0020014615
:1006E000BDE8F08DC1F30A52C1F3130141F4801546
:1006F0004FF0000BD10702D100186D41521E0027A8
:10070000044640F2FF11384601EB620A3E4680463D
:10071000024600204FF48011FFF704FDC219714119
:10072000BB1846EB0100B4EB030C75EB000C04D3D3
:10073000E41A65EB000517460E46241908F101007E
:100740006D4180463428E3DDF91946EB0600091BAC
:10075000A84103D24FF0FF32134601E000221346B6
:100760001BEB070046EB0A51BDE8F04DFFF752BF07
:10077000C1F30A52C1F3130140F2FF3341F4801177
:100780009A4202DA00200146704740F233439A420F
:10079000A2F2334202DC5242FFF7C4BCFFF719BF9A
:1007A00030B5041E71F1000404DB4FF000444042F8
:1007B00064EB0101141E73F1000405DB1C464FF0CD
:1007C0000043524263EB0403994208BF904230BD9C
:1007D000064C074D06E0E06840F0010394E807008E
:1007E00098471034AC42F6D3FFF784FC6838000811
:1007F00088380008FEE700000C4910B50A4AC1E934
:100800000020002088600C22C860C1E904028861D1
:10081000C861084600F066FC002803D0BDE810401F
:1008200000F03DB810BD000000380140500300202A
:1008300070B50C460A46054601464FF6FF7304485C
:1008400000F0D8FC0020291901F8010C70BD00004F
:100850005003002008B5002100918DF800004FF6EC
:10086000FF7301226946024800F020FD08BD000028
:100870005003002070B5054600244FF6FF7607E0D0
:10088000291933460122044800F010FD641CA4B26B
:10089000285D0028F4D170BD5003002070477047D8
:1008A00070B5044600F0ECF80546601C02D0044820
:1008B0000078044400F0E4F8401BA042FAD370BD75
:1008C000000000202DE9F84FDFF890A100220AF186
:1008D000040B144601274FF00F090BF1040E00BF63
:1008E0000B6807FA04F52B40AB4274D1DFF870C1F6
:1008F0004E68A6EB0C0866452BD00DDC032E34D0D9
:1009000005DC36B3012E19D0022E2FD11BE0112E9B
:1009100016D0122E2AD119E0B8F5881F19D006DC9E
:10092000B8F5803F15D0B8F5801F1FD111E0B8F59C
:10093000001F0ED0B8F5041F18D10AE0CA6815E0F0
:10094000CA68121D12E0CA6808320FE0CA680C3289
:100950000CE08A682AB1012A4FF0080203D04561F1
:1009600004E0042202E0056100E00022FF2B01D830
:10097000064601E000F104064FEA840501D9A5F11D
:100980002005D6F800C009FA05F82CEA080C02FA8E
:1009900005F54CEA050CC6F800C04D68ED0057D5CA
:1009A000304DAE6946F00106AE61AD6924F0030634
:1009B00005F0010500952C4D06EB050CDCF8085000
:1009C000A6074FEA167809FA08F6B543274EB04253
:1009D00002D1002610E03BE0254EB04201D10126B5
:1009E0000AE0244EB04201D1022605E0224EB04278
:1009F00001D1032600E0042606FA08F62E43CCF8BF
:100A000008604D68DAF80060ED03554601D51E43D5
:100A100000E09E432E604D68DBF80060AD035D464C
:100A200001D51E4300E09E432E604D68DEF8006055
:100A3000ED02754601D51E4300E09E432E604D68D1
:100A4000AD020E4D2E6801D51E4300E09E432E6080
:100A5000641C102CFFF444AFBDE8F88F0004014083
:100A60000000111000100240000001400008014089
:100A7000000C014000100140001401400C04014032
:100A8000014880687047000000000020024881682B
:100A9000027811448160704700000020074810B5BB
:100AA000016841F010010160032000F067F80020A8
:100AB00000F006F800F024F8002010BD00200240ED
:100AC00070B50D4D04464FF47A712878B1FBF0F003
:100AD0000A490968B1FBF0F000F0F0FA48B9102CAF
:100AE00007D200222146501E00F028F800206C603A
:100AF00070BD012070BD0000000000200C0000202F
:100B00000C4808B5816941F001018161816901F0FA
:100B100001010091C16941F08051C161C06900F0DB
:100B2000805000900448416821F0E06141F000717C
:100B3000416008BD0010024000000140F0B40E4BBF
:100B40001B680C46C3F30223C3F10705042D00D92B
:100B50000425191D072901D2002300E0DB1E012610
:100B600006FA05F1491E214099409E40761E164026
:100B70003143F0BC00F0CCBD0CED00E0064900F0C4
:100B8000070208684FF6FF03184040EA0220034AB4
:100B900010430860704700000CED00E00000FA050B
:100BA0002DE9F047DFF8548105460E46D8F80000DD
:100BB00000F00700B0420CD2D8F8001021F0070175
:100BC0003143C8F80010D8F8000000F00700B04228
:100BD0006FD128684A4C810712D5400703D5606859
:100BE00040F4E06060602878000703D5606840F456
:100BF000605060606068A96820F0F00008436060A1
:100C00002878C00744D06868012816D021680228D7
:100C100016D0890700294CDA616821F003010143ED
:100C20006160FFF72DFF6968074641F288300129AE
:100C30000ED00229814618D026E021688903E9E711
:100C40008901E7E7FFF71CFFC11B494501D918E0FF
:100C500081466068C0F381000128F3D118E000BF2D
:100C6000FFF70EFFC11B49450BD86068C0F3810038
:100C70000228F5D10CE000BFFFF702FFC11B494578
:100C800002D90320BDE8F087606810F00C0FF3D1A3
:100C9000D8F80010404601F00701B1420BD90168B5
:100CA00021F0070131430160006800F00700B04205
:100CB00001D00120E6E72878400705D56068E9689B
:100CC00020F4E060084360602878000706D560687B
:100CD000296920F4605040EAC100606000F036F8F5
:100CE0006168084AC1F30311515CC84006490860B5
:100CF0000020FFF7E5FE0020C4E7000000200240CE
:100D0000001002408C3600080C0000200448054901
:100D100000684968044AC1F30221515CC840704729
:100D20000C000020001002409C36000804480549D1
:100D300000684968044AC1F3C221515CC840704749
:100D40000C000020001002409C36000812A185B063
:100D50000FC98DE80F0014A0144A00680490516870
:100D6000134801F00C03042B10D0082B0ED1C1F353
:100D70008343C9031DF803000AD5516804AAC1F3CF
:100D80004041515C0A4A5043B0FBF1F005B0704756
:100D900008494843FAE7000002030405060708096A
:100DA0000A0B0C0D0E0F1010010200000010024083
:100DB00000127A0000093D002DE9F84F0446007842
:100DC000B94DC00748D06868C0F38100012807D03A
:100DD0006868C0F38100022809D16868C00306D59D
:100DE0002868800338D5606800286FD034E06068D8
:100DF000B0F5803F0BD010B1B0F5A02F11D028680E
:100E000020F480302860286820F4802002E02868E0
:100E100040F480302860606888B1FFF731FE0646F4
:100E200009E0286840F480202860F0E7FFF728FEFA
:100E3000801B642875D828688003F7D50CE0FFF77D
:100E40001FFE064605E000BFFFF71AFE801B642860
:100E5000F0D828688003F7D42078944E80074FF0AC
:100E600001094FF000083BD5686810F00C0F07D05F
:100E70006868C0F38100022809D16868C00306D4FD
:100E80002868800714D5206901281FD110E0206947
:100E9000B0B1C6F80090FFF7F3FD074605E000BFCC
:100EA000FFF7EEFDC01B0228C4D828688007F7D5DD
:100EB0002868616920F0F80040EAC10028600FE06E
:100EC000C6F80080FFF7DCFD074606E0E9E000BF5A
:100ED000FFF7D6FDC01B022823D828688007F7D467
:100EE000207800072CD57248A169D9B1C0F80090CC
:100EF000FFF7C6FD074604E0FFF7C2FDC01B02284E
:100F00000FD8686A8007F7D56A484FF4FA5100682D
:100F1000B0FBF1F0009000BF0098411E0091FAD2A2
:100F20000EE080E0C0F80080FFF7AAFD074604E06D
:100F3000FFF7A6FDC01B022875D8686A8007F7D4A2
:100F40002078400760D5E8690027C00008D4E86928
:100F500040F08050E861E869012700F0805000907F
:100F600055480168C90513D40168834641F480716E
:100F70000160FFF785FD824606E000BFFFF780FDB8
:100F8000A0EB0A0064284ED8DBF80000C005F5D5B8
:100F9000E06801280AD008B1052813D0286A20F09B
:100FA00001002862286A20F0040002E0286A40F06C
:100FB00001002862E06841F2883B98B1FFF760FDCC
:100FC00082460BE0286A40F004002862EEE700BF8A
:100FD000FFF756FDA0EB0A0159455AD8286A800749
:100FE000F6D50CE0FFF74CFD824605E0FFF748FD23
:100FF000A0EB0A0159454CD8286A8007F6D41FB1E6
:10100000E86920F08050E861E06988B36968C1F35D
:101010008101022945D00228C6F8608004D0FFF77C
:101020002FFD044638E034E0FFF72AFD074604E0D0
:10103000FFF726FDC01B02282BD828688001F7D4B3
:10104000206AB0F5803F05D16868A16820F40030BF
:1010500008436860D4E908010843696821F4741101
:1010600008436860C6F86090FFF70AFD044606E092
:1010700015E000BFFFF704FD001B022809D828680F
:101080008001F7D50BE000BFFFF7FAFC001B022838
:1010900002D90320BDE8F88F28688001F4D400202D
:1010A000F8E70120F6E7000000100240000042428D
:1010B000800442420C0000200070004010B5401E29
:1010C000B0F1807F01D3012010BD4FF0E0246061BA
:1010D0000F21601700F01CFB0020A0610720206199
:1010E000002010BD70B5040004D094F8390000252C
:1010F00010B106E0012070BD84F83850204600F0A1
:1011000023F8242084F839002068C16821F40051B4
:10111000C160204600F05CFB2068016921F4904129
:1011200001612068416921F02A0141612068C1689C
:1011300041F40051C160E563202084F8390084F84F
:101140003A00002070BD000070B586B00024009405
:10115000019402940394234E03682349022003223E
:10116000224DB34219D18B6943F480438B618B6963
:1011700003F4804304938B6943F004038B61896912
:10118000039201F0040104910102CDE900106946C7
:101190002846FFF797FB28151BE0154EB3421FD1D9
:1011A000CB6943F40033CB61CB6903F40033049380
:1011B0008B6943F004038B618969039201F0040198
:1011C00004910421CDE9001069462846FFF77AFB17
:1011D0000820CDE90004694628460294FFF772FB17
:1011E00006B070BD00380140001002400008014008
:1011F000004400402DE9F843044690F83A0099462F
:1012000016460D4620284FD195B18EB194F838007E
:10121000012849D0012084F838000027E763222004
:1012200084F83A00FFF72CFCA6858046E68531E07D
:101230000120BDE8F883E08D401EE085A0684346AC
:10124000B0F5805F4FF000024FF020012046CDF84E
:10125000009004D000F074FB98B10320E9E700F09F
:101260006FFB0028F9D1206900282068406803D06E
:10127000C1B225F8011B0DE0C0F3080125F8021BDF
:1012800008E0206900282068406801D000F07F0055
:1012900005F8010BE08D0028CDD1202084F83A001C
:1012A00084F838700020C4E70220C2E72DE9F84333
:1012B000044690F839001F4616460D46202850D1A6
:1012C000A5B19EB194F8380001284AD0012084F8D5
:1012D00038004FF00008C4F83C80212084F8390021
:1012E000FFF7CEFBA6848146E68426E00120BDE818
:1012F000F883E08C401EE084A0684B46B0F5805F28
:101300004FF000024FF080012046009703D000F01C
:1013100017FBE8B90DE000F013FBC8B92888216875
:10132000C0F308004860206908B16D1C05E0AD1CE1
:1013300003E0216815F8010B4860E08C0028D8D143
:101340004B46002240212046009700F0F9FA08B1F0
:101350000320CCE7202084F8390084F8388000206E
:10136000C5E70220C3E7FEE72DE9F14F294D86B01E
:10137000D5E9024720463946FFF7C5F8FFF7A5F83B
:101380008846064622463B46FEF7A4FFDFF88890D3
:1013900000224B46FEF7A1FFDFF880A00022534653
:1013A000FFF70DF832464346FEF7F0FE8846D5E9D2
:1013B000004107460D462046FFF7A5F8FFF785F8E0
:1013C0008B46064622462B46FEF784FF00224B46FC
:1013D000FEF783FF00225346FEF7F1FF32465B46DD
:1013E000FEF7D4FECDE9007802460B4602A801F0D4
:1013F00091FEDDE90401DDE90223CDE9000102A847
:1014000001F058FC02AD95E81F0084E80F0007B01A
:10141000BDE8F08F380300200000594000004E4026
:101420002DE9F14FDFF8B88100254FF4487488F8B2
:10143000155088F8125088F81350A94688F81450AF
:101440002146A8F54870FFF7F3F9A8F5487165A0A3
:1014500000F0AAFAA8F54876705D242811D1701919
:10146000417847290DD181784E2901D0502908D1E2
:10147000C178522905D101794D2902D140794328FB
:101480000FD07019407928B16D1CADB2A54201D8BA
:10149000A542E1D30098BDE8F84F18225049FEF765
:1014A00051BE0024DFF844B127466FF02F0AE91936
:1014B000705C0028EED02C280DD1641CA4B2012C45
:1014C0000AD0022C38D0032C41D0042C5BD0052C40
:1014D0005ED0062C7BD07EE000200246D44609E098
:1014E0006BB12C2B0BD000EB80000CEB4000521C9E
:1014F000184492B28B1833445B782E2BF0D16422BF
:10150000B0FBF2F3B3FBF2FC42F21071B0FBF1F16D
:1015100002FB1C3CB0FBF2F30831C9B288F8121090
:1015200002FB130288F813C088F8142018294AD344
:10153000183988F8121046E088194078412802D0FE
:1015400088F8159047E0012188F8151043E0002045
:101550000246D44609E06BB12E2B04D000EB80008C
:101560000CEB40001844521C92B28B1833445B7849
:101570002C2BF0D1FEF7BAFF00225B46FEF71FFFCF
:10158000C8E902011FE08819417888F8111022E0AB
:1015900000200246D44609E06BB12E2B04D000EBAC
:1015A00080000CEB40001844521C92B28B1833445C
:1015B0005B782C2BF0D1FEF799FF00225B46FEF7FB
:1015C000FEFEC8E900017F1CBFB270E7FFE7881983
:1015D000417888F810107F1CBFB20C2CF5D359E766
:1015E0003803002025730D0A0000000080842E417E
:1015F00038B5002341780222009302E06140521C7A
:10160000D2B2845C002CF9D10D4A02EB111401F026
:101610000F0124788DF80040515C8DF801108DF891
:101620000230FFF727F92A20FFF714F96846FFF781
:1016300021F90D20FFF70EF90A20FFF70BF938BD4D
:101640007C36000800B585B0002001900290039020
:101650001048816941F020018161816901F0200118
:101660000491816941F004018161816901F0040103
:101670000491816941F0080181618069694600F047
:1016800008000490282000900348FFF71BF905B0DC
:1016900000BD000000100240000C01400C4810B5D5
:1016A0000A4901604FF4E1314160002181600C2260
:1016B000C160C0E904128161C161FFF713FD002818
:1016C00003D0BDE81040FFF7EAB810BD0038014074
:1016D000500300200C4810B50A4901604FF4E13175
:1016E0004160002181600C22C160C0E90412816167
:1016F000C161FFF7F7FC002803D0BDE81040FFF7F9
:10170000CEB810BD0044004090030020FEE77047B3
:101710000907090E002806DA00F00F0000F1E020AA
:1017200080F8141D704700F1E02080F80014704725
:1017300070477047FFF7AAB930B58FB028216846C7
:10174000FEF719FD14210AA8FEF715FD0121080472
:10175000CDE900100024029402250491CDE9075040
:101760004FF4E01009906846FFF726FB0F20CDE903
:101770000A056802CDE90C4002210AA80E94FFF781
:101780000FFA0FB030BD00000D48016841F00101B3
:10179000016041680B4A1140416001680A4A1140EA
:1017A0000160016821F480210160416821F4FE019B
:1017B00041604FF41F0181600449C0030860704715
:1017C000001002400000FFF8FFFFF6FE08ED00E009
:1017D0002DE9F041044600680169E26821F44051B6
:1017E000114301612169A0680843616908432168C8
:1017F000CA6841F20C639A430243CA602068416997
:10180000A26921F44071114341614C49206864256B
:10181000322688423CD1FFF789FA00EBC00101EB88
:10182000001061688900B0FBF1F7FFF77FFA00EB69
:10183000C00101EB00106168B0468900B0FBF1F017
:10184000B0FBF5F06FF01801484307EB800106EBA1
:101850000110B0FBF5F000F0F006FFF767FA00EBBF
:10186000C00101EB001061688900B0FBF1F0B0FB32
:10187000F5F006EB0016FFF759FA00EBC00101EB9B
:10188000001061688900B0FBF1F7FFF74FFA3BE009
:10189000FFF73CFA00EBC00101EB00106168890022
:1018A000B0FBF1F7FFF732FA00EBC00101EB0010DB
:1018B0006168B0468900B0FBF1F0B0FBF5F06FF065
:1018C0001801484307EB800106EB0110B0FBF5F06F
:1018D00000F0F006FFF71AFA00EBC00101EB001070
:1018E00061688900B0FBF1F0B0FBF5F006EB001683
:1018F000FFF70CFA00EBC00101EB001061688900F2
:10190000B0FBF1F7FFF702FA00EBC00101EB0010AA
:1019100061688900B0FBF1F0B0FBF5F06FF01801E1
:10192000484307EB800108EB0110B0FBF5F021689C
:1019300000F00F0030448860BDE8F08100380140BD
:101940002DE9F041984617460E460446069D1DE0D7
:10195000681C1BD02DB1FFF793F8A0EB0800A8423C
:1019600014D92068C16821F4D071C1602068416930
:1019700021F001014161202084F8390084F83A0007
:10198000002084F838000320BDE8F081206800685A
:1019900036EA000004D00020B842D9D00020F3E796
:1019A0000120F9E7FEE700000FB4054B10B503A9CD
:1019B000044A029800F016FC10BC5DF814FB00000D
:1019C000512E000810000020490050EAC12018BF25
:1019D00004204A0D18BF40F0010040F2FF72B2EB44
:1019E000515F08BF40F00200012808BF0520704782
:1019F0002DE9F74F144694B00021C4E9021115995E
:101A0000079121F00045C9498D4206DC1599C4E9CA
:101A1000000117B00020BDE8F08FC549DFF814A31E
:101A2000A9423CDD0799C44E0029C44FC44A159908
:101A3000534619DDFEF74BFC554506D0C14AC24B53
:101A4000FEF745FCC4E900010AE04FF0D352BE4B5B
:101A5000FEF73DFC32463B46FEF739FCC4E9000187
:101A600017B00120BDE8F08FFEF790FB554506D07A
:101A7000B44AB54BFEF78AFBC4E900010AE04FF017
:101A8000D352B14BFEF782FB32463B46FEF77EFB5C
:101A9000C4E9000117B04FF0FF30BDE8F08FAB494B
:101AA000A942159978DB21F0004183468846A84A6F
:101AB000A84BFEF712FC0022A74BFEF767FBFEF7D0
:101AC00022FD0990FEF701FD06460F469C4A53464B
:101AD000FEF703FC43465A46FEF7FCFB80468A4667
:101AE000984A994B30463946FEF7F7FB2A0D0125F7
:101AF0000B9242465346FEF7EDFB032DC4E900016D
:101B000039D00B98C1F30A51401A05EB4511113930
:101B1000814230DA9148C346784400EB0510CDF895
:101B20000CA00C90D0E9002330463946FEF7D5FBD7
:101B300002460B460491069058460399FEF7C7FBF0
:101B400080468A4602460B4658460399FEF7BFFB7D
:101B5000049B069AFEF7BBFB83460C98039139461B
:101B6000D0E902233046FEF7B8FB5A46039BFEF746
:101B7000AEFB6D1CBDE707980028A2BF099817B0FF
:101B8000BDE8F08F616881F000416160099817B08D
:101B90004042BDE8F08FFFE784461598C1F313017A
:101BA000C0F30A50A0F2F5304FEA601800F01F06AB
:101BB000C6F12000139000200690079041F4801E8B
:101BC00005206D4676B1664A08EB00017A4452F86A
:101BD000213002EB8101B3404A68139922FA01F1E6
:101BE000194305E05F4908EB0002794451F82210DF
:101BF000A1FB0E27A1FB0C131A449A4234BF012308
:101C0000002303EB070A05EB8003D3E901B70F4478
:101C10008F4234BF0121002193448B4411B193457D
:101C200002D903E0934501D2012100E00021C3E97C
:101C300001B7514445F82010011EA0F10100C1DC9C
:101C40000298059F00F10050800F12900298DDE984
:101C500003568000FEF739FC834628460D91FEF7B7
:101C600045FC6FF01D02FEF719FCCDE90E01304670
:101C7000FEF73CFC6FF03D02FEF710FC80468A4602
:101C80003846FEF733FC6FF05D02FEF707FC0746AF
:101C9000424653461191FEF779FADDE90E23FEF72D
:101CA00075FA5A460D9BFEF771FA00250E465A4604
:101CB00028460D9BFEF70BFBDDE90E23FEF707FB25
:101CC00042465346FEF703FB3A46119BFEF702FBE2
:101CD000DFF898A0244A5346FEF7FFFA07468846E5
:101CE000234A244B31462846FEF7F7FA3A46434644
:101CF000FEF74CFA074688464FF0A8425346314655
:101D00002846FEF7EAFA3A464346FEF73FFA159AA6
:101D100012F0004F04D0129A81F000415242129208
:101D2000C4E90001129817B0BDE8F08FFB21E93F2C
:101D30007CD90240FB21F93F7370032E8A19A33B23
:101D4000000040543163621A61B4D03DFB21394137
:101D500083C8C96D305FE43F0000E03F5C1C0000B9
:101D6000D81B0000BA1B0000182D4454FB21F93D7C
:101D70003326A611460B113C2DE9FF4D21F00048FA
:101D800007460C46B8F1795F08DAFEF7BCFB00287D
:101D900001BF0020324904B0BDE8F08D3A46234629
:101DA00010461946FEF799FA054602462D480E469A
:101DB0000B460621784400F05DF82A463346FEF7CC
:101DC0008CFADDE9022382468B4638462146FEF72F
:101DD00084FA04460F4652465B4628463146FEF7D3
:101DE0007CFA22463B46FEF772FA07468A464FF0D7
:101DF000FF3228463146FEF751FB1B4A90450ADA6E
:101E00003A465346FEF763FA04B00022BDE8F04DAF
:101E1000134BFEF75FBA154A4245A8BFA8F5001557
:101E20004FF00004B8BF124D22462B46FEF74FFA82
:101E30000646884622462B4600200949FEF747FA07
:101E400004460D463A46534630464146FEF73FFAB1
:101E500004B022462B46BDE8F04DFEF73BBA000029
:101E60000000F03F881900003333D33F0000E93F02
:101E70000000D23F2DE9F0414F1E00EBC7010446A0
:101E8000D1E9000115461E4637F006020DD02A465C
:101E90003346FEF722FA7F1E04EBC703D3E9002383
:101EA000FEF774F937F00602F1D1022F25D0042F86
:101EB00013D0062F18BFBDE8F0812A463346FEF73F
:101EC0000CFAD4E90A23FEF761F92A463346FEF7F5
:101ED00004FAD4E90823FEF759F92A463346FEF7F7
:101EE000FCF9D4E90623FEF751F92A463346FEF7FA
:101EF000F4F9D4E90423FEF749F92A463346FEF7FC
:101F0000ECF9D4E90223FEF741F92A463346FEF7FD
:101F1000E4F9D4E90023BDE8F041FEF737B9000049
:101F20002DE9FF4D054621F0004084B00C46B0F18C
:101F3000795F0BDA2846FFF747FD042808BF00F059
:101F400071F8284608B02146BDE8F08D2A460B46B8
:101F50001046FEF7C2F906460F462A462346FEF70C
:101F6000BCF9804626488A4632463B4605217844DD
:101F7000FFF780FF83461098029160B3214A224BFD
:101F800040465146FEF7A9F9CDE900015A464046C0
:101F90005146029BFEF7A1F982468846DDE906011B
:101FA0004FF0FF32FEF77AFA52464346FEF78FF9BA
:101FB00032463B46FEF791F9DDE90623FEF787F945
:101FC000DDE90023FEF783F908B02A462346BDE881
:101FD000F04DFEF77FB90B465A4630463946FEF7BC
:101FE0007CF9084A084BFEF7D1F842465346FEF703
:101FF00074F908B02A462346BDE8F04DFEF7C6B88E
:10200000CE180000495555555555C5BF0122FEF75C
:1020100045BAFEF7BBB80022134610461146FEF73C
:10202000CEB90000024A00201107FEF737BA0000BF
:1020300001FDFFFF02E008C8121F08C1002AFAD103
:1020400070477047002001E001C1121F002AFBD138
:10205000704700000149086070470000140000202C
:102060002DE9FF5F82B00021DDE90430020DDDF8CB
:1020700040B0034318D044F61050A2F2FF3242435E
:102080001514119801281FD0A5EB0B00401C5FEA26
:10209000000A4FF000064E4FDFF83891B046504628
:1020A00015D5CAF1000413E0119801244AA30128B0
:1020B00001D16FEA0B010298119AC0E90031C0E921
:1020C000024206B0BDE8F09FCBF10000DFE7044616
:1020D0000021404A491842EB0450CDE9001012E0BB
:1020E000E00707D032463B4640464946FEF7F5F842
:1020F0008046894632463B4610461946FEF7EDF8C3
:1021000006460F466410002CEAD1DDE90401DDE942
:102110000023BAF1000F06DAFEF7DFF842464B461D
:10212000FEF7DBF805E0FEF74AF942464B46FEF7BC
:1021300046F904460E460022284BFEF731FB03D831
:102140004FF0FF30014607E00022254B2046314684
:10215000FEF71CF8FEF70CFB102409E0002C0ADB4C
:102160000A220023FEF704FA039B30321A55641E3C
:1021700050EA0102F2D1641C039AC4F11103144421
:10218000119A012A03D0012208430DD10AE0084325
:1021900004D000204FF0110B119072E7A3EB0B0558
:1021A0006D1E0DE05B4504DD4FF0000205F10105F9
:1021B00004E003DA4FF00002A5F10105002AECD09B
:1021C00002981199C0E90231C0E9004579E70000A1
:1021D000000014400000F03F300000000000F04319
:1021E0000000E03F2DE9FF4F95B09B46894606462B
:1021F00000250FE2252877D100242746F84A01213F
:10220000059400E0044316F8013F203B01FA03F077
:102210001042F7D130782A2811D06FF02F03307890
:10222000A0F13002092A16D8059A44F0020402EB04
:10223000820203EB42021044761C0590EFE759F846
:10224000042B0592002A03DA504244F4005405900E
:1022500044F00204761C30782E2816D116F8010FAF
:1022600044F004042A280DD06FF02F023078A0F13A
:102270003003092B09D807EB870302EB4303C71888
:10228000761CF3E759F8047B761C30786C280FD065
:1022900006DC4C2817D068280DD06A2814D104E039
:1022A000742810D07A280FD10DE044F400140AE00D
:1022B00044F4801401E044F440147278824202D164
:1022C00004F58014761C761C307866280BD013DC5D
:1022D000582877D009DC002875D04528F6D0462844
:1022E000F4D047281AD19DE118E0632835D064283E
:1022F00079D0652812D195E1702873D008DC672861
:10230000F1D069286FD06E280DD06F2806D1B5E0C6
:1023100073282CD0752875D0782874D05A46179910
:1023200090476D1C75E1C4F30250022809D00328C0
:102330000DD0D9F8001004280DD00D6009F1040962
:1023400067E1D9F80010EA17C1E90052F6E7D9F8B9
:1023500000100D80F2E70D70F0E719F8041B8DF8FE
:10236000001000208DF80100EA46012003E059F832
:1023700004AB4FF0FF3061074FF0000102D40DE0D5
:1023800008F101018846B9420FDA8045F8DB1AF8F6
:1023900008100029F4D108E008F1010188468142C3
:1023A000FADB1AF808100029F6D105985B46A0EB75
:1023B000080721463846179A00F094FA284400EBA3
:1023C000080507E04DE029E10DE01AF8010B5A4637
:1023D00017999047B8F10108F7D25B462146384675
:1023E000179A13E142E00A220092C4F302524FF01E
:1023F000000A022A08D059F804CB032A4FEAEC71EC
:102400000AD00DE029E02AE009F1070121F00702D6
:10241000F2E802C1914609E00FFA8CFC4FEAEC7138
:10242000042A03D14FFA8CFC4FEAEC71002907DA39
:102430000A460021DCF1000C61EB02012D2202E0D2
:10244000220504D52B228DF80420012203E0E207A7
:1024500001D02022F7E7904659E00A2102E010223D
:102460000DE010214FF0000A00910BE010224FF018
:10247000000A44F004040827009203E008224FF009
:10248000000A0092C4F30252022A05D059F804CB84
:102490000021032A08D009E009F1070121F0070211
:1024A000F2E802C1914605E01FFA8CFC042A01D132
:1024B0000CF0FF0C4FF00008220728D5702806D03A
:1024C000009B83F0100353EA0A0305D00EE040227C
:1024D0008DF80420012208E05CEA010206D03022D7
:1024E0008DF804208DF8050002229046009B83F0B1
:1024F000080353EA0A030AD15CEA010201D1620728
:1025000005D530228DF804204FF001087F1E582891
:1025100004D034A003900EA802900DE036A0F9E795
:1025200053466046009AFEF723F884460398825C7F
:102530000298401E029002705CEA0100F0D10298FD
:1025400006A9081A00F1200A600702D524F4803495
:1025500000E00127574502DDA7EB0A0000E000205C
:1025600000EB0A01009005984144401A0590E003F1
:1025700006D45B462146179A059800F0B3F9054446
:10258000002706E001A85A46C05D179990476D1CC8
:102590007F1C4745F6DBE0030CD55B462146179AC6
:1025A000059800F09FF9054404E030205A46179939
:1025B00090476D1C0099481E00900029F5DC08E04A
:1025C000029802995A460078491C0291179990473F
:1025D0006D1CBAF10001AAF1010AF1DC65E100000D
:1025E00009280100303132333435363738396162E9
:1025F00063646566000000003031323334353637AD
:1026000038394142434445460000000000F058F983
:102610000544761C307800287FF4ECAD19B02846CC
:10262000BDE8F08F620700D4062709F1070222F007
:10263000070CFCE80223E14603F000485FEA080CBF
:1026400002D00FF2702C0DE05FEA045C02D50FF2AD
:10265000682C07E05FEAC47C02D00FF2602C01E036
:10266000AFF2700C4FF0FF3823F00043CDF850C0AC
:1026700065280CD006DC452809D046281DD04728FF
:102680003DD13DE0662818D067287ED138E0002192
:10269000112F01DB112000E0781CCDE9000106A913
:1026A0000EA8FFF7DDFCDDE90F010E9A0391002172
:1026B000009207F1010A04914DE04FF000400097AD
:1026C000CDE9011006A90EA8FFF7CAFCDDE90F024B
:1026D00003920E9B11990022DDF80CA00093049246
:1026E00011B9791C00EB010AB7EB0A0004D4C0F160
:1026F000FF3007F1010A0490AAEB0700019044E0C3
:10270000012F00DA01270021112F01DD112000E047
:102710003846CDE9000106A90EA8FFF7A1FCDDE9C6
:102720000F010E9A0391002104910092BA462107ED
:102730000CD40399514500DA8A46BAF1010F05DD40
:10274000009AAAF10101515C302908D0B84202DA9E
:1027500010F1040F06DA0121CDE9011015E0AAF10C
:102760000101E9E7002805DC049901440491AAEB82
:10277000000102E0411C514500DD8A460499401ADF
:10278000401C01904FF000400290200704D40198B3
:10279000504501DBCDF8048000208DF84F000298F1
:1027A0000DF14F07B0F1004F25D02B200E9002986D
:1027B0004FF0020800280CDA404202902D200E90C3
:1027C00007E00A210298FDF7BDFE3031029007F8BC
:1027D000011DB8F10001A8F10108F2DC02980028FF
:1027E000EFD1791E0E980870307800F0200040F08C
:1027F000450007F8020D12A8C01B00F10708149845
:10280000007800B1012000EB0A01019801EBE071B2
:1028100005984144401A401E0590E00306D45B46EB
:102820002146179A059800F05DF805441498007841
:1028300018B15A46179990476D1CE00324D55B46A2
:102840002146179A059800F04DF805441CE00498BD
:10285000002807DBDDE90301884203DD0098405CC6
:10286000179901E0179930205A469047049805F1CE
:102870000105401C04900198401E019004D12E20B7
:102880005A46179990476D1CBAF10001AAF1010A46
:10289000DDDC05E017F8010B5A46179990476D1CCF
:1028A000B8F10001A8F10108F4DC5B462146179A53
:1028B0000598ABE62D0000002B0000002000000072
:1028C0002DE9F041044600251E461746880404D42D
:1028D00005E039462020B0476D1C641EF9D5284616
:1028E000BDE8F0812DE9F041044600251E469046E2
:1028F000C80301D5302700E02027880404D505E06F
:1029000041463846B0476D1C641EF9D52846BDE8DF
:10291000F08100002DE9F84F04460D4621F00040FB
:1029200000917349814211DC7249884201DC06D171
:102930002CB120462946BDE8F84FFFF767BB6E482B
:10294000002DCCBF6D496E49BDE8F88F6D498142BD
:1029500011DD6D498142D8BF4FF0FF366DDD204655
:102960002946FFF731F8042808BFFFF75BFB204634
:102970002946BDE8F88F6549654F25F0004581423D
:1029800033DD6449814219DD002632464FF0804331
:1029900020462946FDF7FAFB80468A46012220465A
:1029A0002946FDF77BFD00223B46FDF790FC4246A1
:1029B0005346FDF704FD04460D463EE00126002285
:1029C000BA463B4620462946FDF7E0FB80460F46C7
:1029D0000022534620462946FDF779FC42463B46F5
:1029E000FDF7EDFC04460D4627E04B4981421BDD17
:1029F000DFF828A102260022534620462946FDF78B
:102A00006CFC00223B46FDF7C1FB80460F460022CE
:102A1000534620462946FDF75AFC42463B46FDF701
:102A2000CEFC04460D4608E0032622462B46002035
:102A30003B49FDF7C4FC04460D4622462B46104692
:102A40001946FDF74AFC8B46824602460B46FDF7C7
:102A500044FC07460246334888460B460621784424
:102A6000FFF708FA52465B46FDF737FC82462E48D0
:102A70008B463A46434605217844FFF7FBF93A4630
:102A80004346FDF72AFC02460B46002E50465946A7
:102A90000CDAFDF77BFB22462B46FDF71EFC01B04E
:102AA00022462B46BDE8F04FFDF714BCFDF76EFB48
:102AB00022462B46FDF711FC1C4A7A4402EBC60362
:102AC000D3E90023FDF703FC22462B46FDF7FFFB6D
:102AD000174A7A4402EBC603D3E90023FDF7FAFB59
:102AE000009A002AB8BF81F00041BDE8F88F0000CD
:102AF000000010440000F07F182D4454FB21F93FE2
:102B0000FB21F9BF0000DC3F0000203E0000F33F46
:102B10000000F03F0000E63F008003400000F83F67
:102B20000000F0BFAE0C00006C0C00000A0C0000AE
:102B3000D20B00002DE9F04D9446CCF1000423F0B7
:102B400000464CEA0404524F46EAD4749A4688463A
:102B500021F00042BC4206D8454240EA050442EA60
:102B6000D474BC4204D9BDE8F04D6246FFF751BAB7
:102B7000AAF14055A5F17F6555EA0C040BD002245B
:102B800004EAAA74434DDFF810E144EAD87452EA2B
:102B9000000B04D00CE0BDE8F04DFFF7BBBE002CED
:102BA00014BF012CBDE8F08D022C30D0032C32D0A4
:102BB00056EA0C0B0AD0BE4220D1BA4209D126F007
:102BC000804622F080423346114617E000291ADB86
:102BD00025E0DFF8C8B0FB44002C04BFDBE90001AE
:102BE000BDE8F08D012C02BFDBE9000181F000415E
:102BF000BDE8F08D022C0AD0032C0CD0BA4212D1C1
:102C0000B8F1000F0BDA23482549BDE8F08D2846BE
:102C10002449BDE8F08D28467146BDE8F08D1D4879
:102C20002149BDE8F08D921B12153C2AC4BF1948FA
:102C30001D490EDCBAF1000FBEBF12F13C0F00209F
:102C4000014606DB6246FDF7BAFB21F00041FFF7C3
:102C500061FE002C08BFBDE8F08D012C04BF81F09F
:102C60000041BDE8F08D114A114B022C07D0FDF751
:102C70002EFB2A46BDE8F04D0A4BFDF728BBFDF7B9
:102C800026FB2A46BDE8F04D064BFDF723BB0000AE
:102C90000000F07F182D4454FB2109C0960B000062
:102CA000FB21F9BFFB210940FB21F93F075C1433ED
:102CB00026A6A13C0FB42DE9F05F1646DDE90E41D2
:102CC0001F460D46314A324B2046FDF706FB00F009
:102CD000ABF9304A304BFDF700FB81468A4622466D
:102CE0002B4620462946FDF7F8FA834688463246A9
:102CF0003B4630463946FDF7F0FA5A464346FDF763
:102D000045FA00F0E1F94A465346FDF73FFA80469E
:102D100089461E4A1E4B30463946FDF7DEFA00F062
:102D200049F81E4A1E4BFDF7D8FA82468B463246BA
:102D30003B4620462946FFF7FDFE52465B46FDF71F
:102D400025FA04460D4600F035F842464B46FDF79D
:102D5000C4FA144A144BFDF719FA06460F462046EA
:102D6000294600F061F942464B46FDF7B6FA0F4A94
:102D70000F4BFDF70BFA02460A98C0E90221C0E9A1
:102D80000067BDE8F01F5DF814FB00004E04C77734
:102D9000102E4A40F168E388B5F8F43E54E410710F
:102DA000732AC93E39B4C876BE9F7A3FFA7E6ABCA0
:102DB0007493783F00B5244B21F0004287B09A42CB
:102DC000DCBF0022134629DD204B9A4208D140B9CE
:102DD0004FF00100FFF73EF9FFF71DF907B000BD06
:102DE00003DBFFF713F907B000BD02AAFEF700FEF0
:102DF00010F0030104BF0DF1080C9CE80F000DD08A
:102E0000012001290ED0022914D00DF1080C0090E8
:102E10009CE80F00FFF784F807B000BDFEF7ACFF99
:102E200007B000BD0DF1080C00909CE80F00FFF703
:102E300077F805E00DF1080C9CE80F00FEF79CFF09
:102E400007B081F0004100BDFB21E93F0000F07FA9
:102E500013B54FF6FF73012269460248FEF726FAC2
:102E600000981CBD900300208CB0FDF717FEFEF704
:102E700063FCFEF7E7FBFEF711FCFEF72BFC3120AD
:102E8000FDF7E8FC6420FDF70BFD4FF41650FDF74D
:102E9000B3FC6420FDF704FD23A0FEF785FD2EA002
:102EA000FEF7A6FB6420FDF7FBFC6420FDF7F8FCB1
:102EB0004FF4E130FDF7A0FC6420FDF7F1FC2AA0FF
:102EC000FEF772FD2EA0FEF793FB30A0FEF76CFD1F
:102ED00038A0FEF78DFB6846FEF7A2FA1822694675
:102EE00006A8FDF72FF99DF82C309DF82B209DF8B2
:102EF0002A1034A0FEF758FD9DF828000490DDE963
:102F00000601CDE902019DF82900DDE908230090C2
:102F100031A0FEF749FD6846FEF726FADDE90223F7
:102F200038A0FEF741FDD6E74368616E67652074FF
:102F30006865204C373658206F7574707574206240
:102F4000617564207261746520746F20313135328F
:102F50003030200D0A00000024504D544B323531E2
:102F60002C3131353230300053657420746F206E4F
:102F70006F726D616C206D6F64650D0A000000005A
:102F800024504D544B3232352C30000053657420A0
:102F9000746865206F757470757420646174612045
:102FA000696E74657276616C20746F203430306D98
:102FB000730D0A0024504D544B3232302C343030D3
:102FC0000000000054696D653A2025643A25643A92
:102FD0002564200D0A0000004C61746974756465F5
:102FE00020616E64206C6F6E6769747564653A2049
:102FF000256C66202025632020256C662020256313
:103000000D0A0000426175647520436F6F72646938
:103010006E61746573202020256C662C256C6620FB
:103020002020200D0A00000000B5254B21F00042B1
:1030300087B09A4203DC0022134600922BE0214B1A
:103040009A4208D140B94FF00100FFF703F8FEF7AC
:10305000E2FF07B000BD03DBFEF7D8FF07B000BDFD
:1030600002AAFEF7C5FC10F003014FF001000DD0DD
:10307000012914D002291AD00DF1080C9CE80F0088
:10308000FEF77AFE07B081F0004100BD0DF1080C9B
:1030900000909CE80F00FEF743FF07B000BD0DF164
:1030A000080C9CE80F00FEF767FE07B000BD0DF1AD
:1030B000080C00909CE80F00FEF732FFE2E70000EA
:1030C000FB21E93F0000F07F2DE9F04106460F4665
:1030D000FDF7FDFA041E0D4618BF0120284320F01D
:1030E0000040C0F17F6000F1E040C00F0ED0301C06
:1030F00018BF0120384320F00040C0F17F6000F18C
:10310000E040C00F04BF0120FEF7A4FF204629467F
:10311000BDE8F0810FB42DE9F04F8FB01646DDE920
:103120001C411F460D460022494B2046FDF7CFF8B3
:10313000804689460022474B30463946FDF7C7F89E
:103140008B46824642464B4600F098F8CDE9060190
:1031500042464B465046594600F092F9CDE90110DF
:1031600000223D4B29462046FDF729F93B4A3C4BBE
:10317000FDF7B3F8CDE90A01FFF756FF804689460F
:10318000384A394BFDF7A9F842464B46FDF7A5F8FA
:103190000022364BFDF79EF880468946FFF794FFE4
:1031A00082468B4642464B46FDF797F802460B4651
:1031B0002F483049FDF703F9284A294BFDF78DF8D0
:1031C00080468946DDE906010022234BFDF785F89C
:1031D00042464B46FDF7F3F8CDE90601DDE90A0169
:1031E000FFF7E8FD8146884652465B464FF0804037
:1031F0002149FDF7E4F84A464346FDF76EF8174AC1
:10320000174BFDF76AF880468946DDE90110002278
:10321000114BFDF762F842464B46FDF7D0F8DDE969
:1032200006238046894629462046FCF7AFFF044620
:103230000D4642464B4630463946FCF7A7FF0A4644
:10324000189981E835000FB0BDE8F00F5DF814FB68
:103250000080414000405A4000806640182D445490
:10326000FB2109400BEF80AF8F6A7B3F0000F03FEE
:10327000C155E32D102B5841C15458412DE9F04F51
:103280008DB014461D4606460F46FDF73CF9002852
:1032900000DA4042FDF719F9FFF716FFDFF8A881C1
:1032A0006A4B4246FDF719F881468A464246684B0A
:1032B00030463946FDF711F822462B46FDF70DF84A
:1032C0008B4608904246614B20462946FDF705F89B
:1032D00022462B46FDF701F8CDE9051000225D4B93
:1032E00020462946FCF7F9FF01910490012230465F
:1032F0003946FDF7D3F880460022574B0391FCF77F
:1033000045FF019B049AFCF741FFDDE90532FCF71C
:103310003DFF5B46089AFCF739FF4A465346FCF7E7
:1033200035FF82468B4640464C4A4D4B0399FCF78D
:10333000D4FFFFF779FE00224A4BFCF7CEFF804610
:1033400089460022484B30463946FCF7C6FF434ABF
:10335000434BFCF7C2FFFFF767FE0022414BFCF72F
:10336000BCFF42464B46FCF711FF0122FDF796F8E1
:103370000022384BFDF723F852465B46FCF706FF68
:1033800081468A460022334B20462946FDF717F82E
:10339000324A334BFCF7A1FFFFF746FE0022334BC6
:1033A000FCF79BFF074688462C4A2D4B20462946B2
:1033B000FCF793FF8B460646FFF736FE0022294BAB
:1033C000FCF78BFF43463A46FCF7E0FE0122FDF78F
:1033D00065F800221F4BFCF7F2FF4A465346FCF704
:1033E000D5FE80468946304659460022204BFCF7E0
:1033F000E6FFFFF719FE00221E4BFCF76EFF0746A3
:103400000E4600221C4B20462946FCF7D8FF134AE3
:10341000134BFCF762FFFFF707FE0022174BFCF788
:103420005CFF3A463346FCF7B1FE0122FDF736F861
:103430000022084BFCF7C3FF0DB042464B46BDE8E7
:10344000F04FFCF7A3BE00009A9999999999C93F4A
:103450009999B93F00000840000059C0182D445404
:10346000FB210940000034400000184000004440A7
:1034700000003E400000744000002840000064400E
:103480002DE9FF5F82B0934604460D46FDF73BF8F9
:10349000002800DA4042FDF718F8FFF715FE6B4EE2
:1034A000DFF8AC9132464B46FCF717FF07468846DB
:1034B00032464B4620462946FCF70FFF0091064650
:1034C0005A46059BFCF709FF81468A46304622464C
:1034D0002B460099FCF701FFCDE900010122584677
:1034E0000599FCF7DBFF06468B460022594B204628
:1034F0002946FCF74BFE32465B46FCF747FEDDE90A
:103500000023FCF743FE4A465346FCF73FFE3A468B
:103510004346FCF73BFE07468946012220462946E2
:10352000FCF7BCFF4C4A4D4BFCF7D7FEFFF77CFD88
:10353000DFF82CA100225346FCF7CFFE0646884652
:103540000022484B20462946FCF7C7FE424A434B1F
:10355000FCF7C3FEFFF768FD00225346FCF7BDFEF3
:1035600032464346FCF712FE0122FCF797FFDFF8D4
:10357000F8B000225B46FCF722FF3A464B46FCF7C8
:1035800005FE8046894600225B4620462946FCF718
:1035900016FF314A314BFCF7A0FEFFF745FD002234
:1035A000324BFCF79AFE07460E462B4A2B4B204621
:1035B0002946FCF792FEFFF737FD00225346FCF741
:1035C0008CFE3A463346FCF7E1FD0122FCF766FF2C
:1035D00000225B46FCF7F3FE42464B46FCF7D6FD65
:1035E000804689460022224B20462946FCF7E7FE0A
:1035F000194A1A4BFCF771FEFFF716FD0022154B16
:10360000FCF76BFE07460E4600221A4B2046294661
:10361000FCF7D5FE104A114BFCF75FFEFFF704FDE7
:103620000022154BFCF759FE3A463346FCF7AEFD37
:103630000122FCF733FF00225B46FCF7C0FE06B018
:1036400042464B46BDE8F05FFCF7A0BD9A999999B8
:103650009999B93F00C07240182D4454FB2109408C
:1036600000003440000018400000084000004440C2
:1036700000003E400000284000C06240303132333C
:10368000343536373839414243444546000000005E
:103690000000000001020304060708090000000002
:1036A00001020304000000004FBB610567ACDD3F71
:1036B000182D4454FB21E93F9BF681D20B73EF3F59
:1036C000182D4454FB21F93FE2652F227F2B7A3CD1
:1036D000075C143326A6813CBDCBF07A8807703C8A
:1036E000075C143326A6913CC4EB98999999C9BFFD
:1036F000711623FEC671BCBF6D9A74AFF2B0B3BF32
:103700009AFDDE522DDEADBF2F6C6A2C44B4A2BFF1
:103710000D5555555555D53FFF8300922449C23F5D
:103720006E204CC5CD45B73F513DD0A0660DB13F91
:10373000EB0D76244B7BA93F11DA22E33AAD903FA3
:103740004C5555555555A53F7751C1166CC156BFBF
:103750009015CB19A001FA3EAD529C804F7E92BECF
:10376000C4B1B4BD9EEE213ED43888BEE9FAA8BDEE
:10377000000000000000000000004054FB21F93F61
:103780003163621A61B4D03D0000601A61B4D03D6B
:103790007370032E8A19A33B0000002E8A19A33BE5
:1037A000C14920259A837B390000000000000000F9
:1037B0006E83F9A22915444ED15727FCC0DD34F59C
:1037C000999562DB4190433CAB6351FE61C5BBDE22
:1037D0003A6E24B7E0D24D42EA2E49061C92D10936
:1037E0001CEB1DFE3EA729B1F53582E88444BB2EB3
:1037F00026709CE9417E5FB439D69139F439538300
:103800008B5F849C3B28F9BDFF97F81F0F9805DE5E
:103810008B112FEF1F6D0A5ACF7E366DB709CB275C
:10382000663F464F2DEA5F9EC7BA27757BF1E5EBF1
:10383000F739073DEA92528AB15FFB6B085D8D1F35
:10384000A6F810111111813FD561C119A0012ABF3D
:103850007DFEB157E31DC73EEB9C2B8AE6E55ABEC1
:103860007CD5CF5A3AD9E53D8838000800000020C1
:103870001800000034200008A038000818000020BC
:10388000B8070000442000080100000010000000FC
:103890000000000000A24A04000000000000000038
:04000005080000ED02
:00000001FF
